:100000000C9462000C948A000C948A000C948A0070
:100010000C948A000C948A000C948A000C948A0038
:100020000C948A000C948A000C948A000C948A0028
:100030000C948A000C948A000C948A000C948A0018
:100040000C946C020C948A000C943A020C941402E6
:100050000C948A000C948A000C948A000C948A00F8
:100060000C948A000C948A000000000024002700F1
:100070002A000000000023002600290000000000E4
:10008000250028002B0004040404040404040202D4
:100090000202020203030303030301020408102007
:1000A0004080010204081020010204081020000012
:1000B0000008000201000003040700000000000027
:1000C0000000A40411241FBECFEFD8E0DEBFCDBFD7
:1000D00021E0A0E2B1E001C01D92A03EB207E1F72D
:1000E00011E0A0E0B1E0E0E7FFE002C005900D9272
:1000F000A032B107D9F710E0C2E6D0E004C02197E2
:10010000FE010E94A405C136D107C9F70E94B602BC
:100110000C94B6070C940000CF92DF92EF92FF92FE
:100120000F931F93CF93DF936C017A018B01C0E093
:10013000D0E0CE15DF0589F0D8016D918D01D60193
:10014000ED91FC910190F081E02DC6010995892B7C
:1001500011F47E0102C02196ECCFC701DF91CF914F
:100160001F910F91FF90EF90DF90CF900895FC01C9
:10017000918D828D981761F0828DDF01A80FB11DDE
:100180005D968C91928D9F5F9F73928F90E0089502
:100190008FEF9FEF0895FC01918D828D981731F0BC
:1001A000828DE80FF11D858D90E008958FEF9FEF10
:1001B0000895FC01918D228D892F90E0805C9F4FE6
:1001C000821B91098F739927089589E291E00E941B
:1001D000D90021E0892B09F420E0822F0895FC0149
:1001E000848DDF01A80FB11DA35ABF4F2C91848DC0
:1001F00090E001968F739927848FA689B7892C93F5
:10020000A089B1898C9180648C93938D848D98138F
:1002100006C00288F389E02D80818F7D8083089558
:10022000EF92FF920F931F93CF93DF93EC0181E046
:10023000888F9B8D8C8D981305C0E889F989808102
:1002400085FD24C0F62E0B8D10E00F5F1F4F0F733E
:100250001127E02E8C8DE8120CC00FB607FCFACFE8
:10026000E889F989808185FFF5CFCE010E94EF00F2
:10027000F1CF8B8DFE01E80FF11DE35AFF4FF082A5
:100280000B8FEA89FB898081806207C0EE89FF8934
:100290006083E889F98980818064808381E090E0CF
:1002A000DF91CF911F910F91FF90EF900895CF9321
:1002B000DF93EC01888D8823C9F0EA89FB8980816E
:1002C00085FD05C0A889B9898C9186FD0FC00FB640
:1002D00007FCF5CF808185FFF2CFA889B9898C9181
:1002E00085FFEDCFCE010E94EF00E7CFDF91CF91E8
:1002F000089580E090E0892B29F00E94E5008111AB
:100300000C9400000895833081F028F4813099F036
:100310008230A1F008958730A9F08830B9F0843098
:10032000D1F4809180008F7D03C0809180008F7711
:1003300080938000089584B58F7702C084B58F7D47
:1003400084BD08958091B0008F7703C08091B00084
:100350008F7D8093B00008951F93CF93DF93EBEBD5
:10036000F0E09491E7EAF0E0D491E3E9F0E0C491A1
:10037000CC23D9F0182F992319F0892F0E948301DB
:10038000EC2FF0E0EE0FFF1FE458FF4FA591B49162
:100390008FB7F894111105C09C91ED2FE095E923DA
:1003A00002C0EC91ED2BEC938FBFDF91CF911F91A9
:1003B0000895CF93DF93EC0188819981009711F024
:1003C0000E943F06198218821D821C821B821A829B
:1003D000DF91CF9108950E94A1070F931F93CF93B0
:1003E000DF93EC0188819981009729F02A813B8174
:1003F0002617370788F48B016F5F7F4F0E94D7065F
:10040000009761F0998388831B830A832C813D8147
:10041000232B11F4FC01108281E001C080E0DF9108
:10042000CF911F910F9108951F920F920FB60F92C7
:1004300011242F933F934F935F936F937F938F93E9
:100440009F93AF93BF93EF93FF9389E291E00E9454
:10045000EF00FF91EF91BF91AF919F918F917F91AD
:100460006F915F914F913F912F910F900FBE0F9021
:100470001F9018951F920F920FB60F9211242F9371
:100480008F939F93EF93FF93E0913901F0913A019D
:100490008081E0913F01F091400182FD12C0908186
:1004A000809142018F5F8F7320914301821751F039
:1004B000E0914201F0E0E75DFE4F958F80934201AD
:1004C00001C08081FF91EF919F918F912F910F90AB
:1004D0000FBE0F901F9018951F920F920FB60F929C
:1004E00011242F933F938F939F93AF93BF9380914A
:1004F000250190912601A0912701B091280130910A
:10050000240123E0230F2D3720F40196A11DB11DF6
:1005100005C026E8230F0296A11DB11D20932401DA
:100520008093250190932601A0932701B093280181
:100530008091200190912101A0912201B09123018D
:100540000196A11DB11D8093200190932101A093DC
:100550002201B0932301BF91AF919F918F913F9161
:100560002F910F900FBE0F901F901895CF93DF9390
:10057000CDB7DEB7A8970FB6F894DEBF0FBECDBFDC
:10058000789484B5826084BD84B5816084BD85B56E
:10059000826085BD85B5816085BD80916E0081607A
:1005A00080936E0010928100809181008260809320
:1005B0008100809181008160809381008091800022
:1005C0008160809380008091B10084608093B1004D
:1005D0008091B00081608093B00080917A00846047
:1005E00080937A0080917A00826080937A00809173
:1005F0007A00816080937A0080917A00806880938D
:100600007A001092C100E0913901F0913A0182E044
:100610008083E0913501F09136011082E09137013D
:10062000F09138018FEC808310924101E0913D01FF
:10063000F0913E0186E08083E0913B01F0913C0126
:10064000808180618083E0913B01F0913C01808159
:1006500088608083E0913B01F0913C01808180685B
:100660008083E0913B01F0913C0180818F7D80830C
:100670005DE9C52E50E0D52EF601249169E8A62E3D
:1006800060E0B62EF50184918823C9F090E0880FD0
:10069000991FFC01E859FF4FA591B491FC01E45862
:1006A000FF4F459154913FB7F8949C91822F8095CC
:1006B00098239C93FA019081892380833FBFE7EAC6
:1006C000F0E02491E3E9F0E08491882399F090E050
:1006D000880F991FFC01E859FF4FA591B491FC01C7
:1006E000E458FF4F859194918FB7F894EC91E22BE9
:1006F000EC938FBF91EB292E90E0392E8E010F5F86
:100700001F4F88248394912C8FB7F8944090250133
:100710005090260160902701709028018FBFF10151
:100720008491F601F490F501E490EE2009F43BC0C9
:1007300081110E948301EE2DF0E0EE0FFF1FEE58B5
:10074000FF4FA591B4918C91F82269F181E00E944C
:10075000AC018091DA019091DB01019709F4C6C0E8
:100760004092D6015092D7016092D8017092D9017F
:100770008091D2019091D301A091D401B091D50183
:10078000A3019201281B390B4A0B5B0B2093CE016E
:100790003093CF014093D0015093D1019092DB016F
:1007A0008092DA01A3C080E00E94AC018091DA015E
:1007B0009091DB01892B09F499C04092D2015092AB
:1007C000D3016092D4017092D5018091D6019091AD
:1007D000D701A091D801B091D901481A590A6A0AE3
:1007E0007B0A4092CA015092CB016092CC01709278
:1007F000CD011092DB011092DA01A3019201225087
:10080000310941095109A8E8B3E10E94120520917C
:10081000CE013091CF014091D0015091D101420ED3
:10082000531E641E751EA301920124503109410913
:1008300051090E946305CA01B9012093C601309392
:10084000C7014093C8015093C9011CA21BA21EA25C
:100850001DA218A61FA22AE0A8010E94D104F80137
:1008600001900020E9F731977F01E01AF10AB70102
:10087000CE0183960E94ED0181113BC0CE0183968B
:100880000E94D9011A8219821C821B821E821D823B
:1008900066E070E0C8010E94ED01811132C0C8011C
:1008A0000E94D9018FA198A54BA05CA0ED80FE808D
:1008B0004114510409F444C0009771F54D815E81E3
:1008C00069817A8189E291E00E948C0042E050E0E7
:1008D0006DE171E089E291E00E948C0089819A814A
:1008E0000E943F068BA19CA10E943F060E947901B5
:1008F0000BCFF8A6EFA2B8018BA19CA10E94AF0775
:10090000C1CF86E090E09E838D8366E171E08981AE
:100910009A810E94AF07C6CFE80EF91EB701C80141
:100920000E94ED01882361F029813A818D819E81A9
:10093000B201820F931F0E94AF07FE82ED82BECFED
:10094000C8010E94D901BACFE9E2F1E01382128214
:1009500088EE93E0A0E0B0E084839583A683B7831C
:100960008AE091E09183808385EC90E0958784878D
:1009700084EC90E09787868780EC90E0918B808B69
:1009800081EC90E0938B828B82EC90E0958B848B52
:1009900086EC90E0978B868B118E128E138E148EC0
:1009A0000895BB272A3051F4992342F4BDE2909573
:1009B0008095709561957F4F8F4F9F4F0C94E10408
:1009C000BB27FA01A62F6217710581059105330B2C
:1009D00030FB66F0AA27660F771F881F991FAA1F92
:1009E000A21710F0A21B63953850A9F7A05DAA3397
:1009F00008F0A95DA19336F7B111B1931082CA0135
:100A00000C940205DC01FC01672F71917723E1F75B
:100A1000329704C07C916D9370836291AE17BF07CB
:100A2000C8F308950E945405A59F900DB49F900DA2
:100A3000A49F800D911D112408952F923F924F92F3
:100A40005F926F927F928F929F92AF92BF92CF925E
:100A5000DF92EF92FF920F931F93CF93DF93CDB767
:100A6000DEB7CA1BDB0B0FB6F894DEBF0FBECDBFDF
:100A700009942A88398848885F846E847D848C84B0
:100A80009B84AA84B984C884DF80EE80FD800C81B9
:100A90001B81AA81B981CE0FD11D0FB6F894DEBF9C
:100AA0000FBECDBFED010895A29FB001B39FC0015D
:100AB000A39F700D811D1124911DB29F700D811D8A
:100AC0001124911D0895052E97FB1EF400940E9499
:100AD0007A0557FD07D00E94820507FC03D04EF42B
:100AE0000C947A0550954095309521953F4F4F4F86
:100AF0005F4F089590958095709561957F4F8F4FCA
:100B00009F4F0895A1E21A2EAA1BBB1BFD010DC029
:100B1000AA1FBB1FEE1FFF1FA217B307E407F507AD
:100B200020F0A21BB30BE40BF50B661F771F881F89
:100B3000991F1A9469F760957095809590959B011F
:100B4000AC01BD01CF010895EE0FFF1F0590F49198
:100B5000E02D0994CF93DF938230910510F482E069
:100B600090E0E091DE01F091DF0120E030E0C0E0B4
:100B7000D0E0309711F14081518148175907C0F0FA
:100B80004817590761F482819381209719F09B835C
:100B90008A832BC09093DF018093DE0126C021154C
:100BA000310519F04217530718F49A01BE01DF010D
:100BB000EF010280F381E02DDCCF2115310509F131
:100BC000281B390B2430310590F412968D919C919D
:100BD00013976115710521F0FB019383828304C093
:100BE0009093DF018093DE01FD01329644C0FD0148
:100BF000E20FF31F81939193225031092D933C937F
:100C00003AC02091DC013091DD01232B41F4209189
:100C10000201309103013093DD012093DC0120912A
:100C20000001309101012115310541F42DB73EB786
:100C30004091040150910501241B350BE091DC012A
:100C4000F091DD01E217F307A0F42E1B3F0B2817EC
:100C5000390778F0AC014E5F5F4F2417350748F035
:100C60004E0F5F1F5093DD014093DC018193919300
:100C700002C0E0E0F0E0CF01DF91CF9108950F9343
:100C80001F93CF93DF93009709F48CC0FC01329738
:100C9000138212820091DE011091DF01011511050E
:100CA00081F420813181820F931F2091DC013091EA
:100CB000DD012817390779F5F093DD01E093DC01B8
:100CC00071C0D80140E050E0AE17BF0750F4129653
:100CD0002D913C911397AD012115310509F1D901F1
:100CE000F3CF9D01DA013383228360817181860F06
:100CF000971F8217930769F4EC0128813981260F29
:100D0000371F2E5F3F4F318320838A819B819383DE
:100D10008283452B29F4F093DF01E093DE0142C08A
:100D20001396FC93EE931297ED01499159919E0110
:100D3000240F351FE217F30771F480819181840F2E
:100D4000951F029611969C938E93828193811396A0
:100D50009C938E931297E0E0F0E0D80112968D916B
:100D60009C911397009719F0F8018C01F6CF8D91A3
:100D70009C9198012E5F3F4F820F931F2091DC01C1
:100D80003091DD012817390769F4309729F4109262
:100D9000DF011092DE0102C0138212821093DD0186
:100DA0000093DC01DF91CF911F910F910895A0E096
:100DB000B0E0EDEDF6E00C942105EC01009721F494
:100DC000CB010E94AA05B8C0FC01E60FF71F9C01E9
:100DD00022503109E217F30708F4ACC0D9010D9194
:100DE0001C91119706171707B0F00530110508F48C
:100DF0009FC0C80104978617970708F499C002504E
:100E00001109061B170B019311936D937C93CF016E
:100E10000E943F068DC05B01A01AB10A4C01800EF2
:100E2000911EA091DE01B091DF0140E050E0E12C85
:100E3000F12C109709F44AC0A815B905D1F56D90A9
:100E40007C901197630182E0C80ED11CCA14DB04A8
:100E500080F1A3014A195B096A0182E0C80ED11C26
:100E60001296BC9012971396AC91B5E0CB16D104B4
:100E700040F0B282A38351834083D9016D937C9368
:100E80000AC00E5F1F4FC301800F911FF9019183AC
:100E90008083EB2DFA2FE114F10431F0D701139682
:100EA000FC93EE93129744C0F093DF01E093DE01D0
:100EB0003FC08D919C9111974817590708F4AC01D8
:100EC0007D0112960D90BC91A02DB3CF8091DC01D5
:100ED0009091DD0188159905E1F446175707C8F48C
:100EE0008091000190910101009741F48DB79EB768
:100EF0004091040150910501841B950BE817F907F7
:100F0000C8F4F093DD01E093DC01F90171836083A3
:100F10000FC0CB010E94AA057C01009759F0A801DF
:100F2000BE010E94A607CE010E943F06C70104C071
:100F3000CE0102C080E090E0CDB7DEB7EEE00C94C9
:100F40003D0581E090E0F8940C94B607FB01DC01CC
:100F500002C001900D9241505040D8F70895FB0116
:100F6000DC0101900D920020E1F70895F894FFCF85
:100F70000000E00180000000000010018C00D9009A
:100F8000B700CB00570150504D203D20000D0A0006
:00000001FF
